:020000041A00E0
:10000000008000106D05001A7901001A7B01001AAA
:100010007D01001A7F01001A8101001A2273FF532B
:100020000000000000000000000000008301001A32
:100030008501001A000000008701001AAD19001A9E
:10004000BB01001ABB01001ABB01001A000000002E
:10005000BB01001ABB01001ABB01001ABB01001A48
:10006000851C001ABB01001ABB01001ABB01001A53
:100070001118001A5118001A9118001AD518001AF0
:10008000BB01001ABB01001ABB01001ABB01001A18
:10009000BB01001ABB01001ABB01001ABB01001A08
:1000A000BD01001ABB01001A6F1C001A791C001A4E
:1000B000BB01001ABB01001ABB01001ABB01001AE8
:1000C000C120001ACB20001AD520001ABB01001A4B
:1000D000BB01001ABB01001ABB01001ABB01001AC8
:1000E000BB01001ABB01001ABB01001ABB01001AB8
:1000F00000000000BB01001ABB01001ABB01001A7E
:1001000000000000BB01001ABB01001ABB01001A6D
:10011000BB01001ADC33001A0000001018010000B7
:10012000DC33001A0000081000000000DC33001A65
:100130000000002000000000DC33001A00800020D6
:1001400000000000DC33001A00C0002000000000A6
:100150001801001008010000000008100000000055
:1001600000000020000000000080002000000000CF
:1001700000C0002000000000FEE7FEE7FEE7FEE70B
:10018000FEE7FEE7FEE7FEE7FEE7002393420AD222
:1001900010B450F8044B41F8044B04339342F8D3A5
:1001A0005DF8044B7047704700238B4204D2002255
:1001B00040F8042B0433F8E77047FEE708B5002049
:1001C00001F00AFC08BDFFFFFFFFFFFFFFFFFFFF7D
:1001D000FFFFFFFFFFFFFFFFFFFFFFFFFFFFFFFF2F
:1001E000FFFFFFFFFFFFFFFFFFFFFFFFFFFFFFFF1F
:1001F000FFFFFFFFFFFFFFFFFFFFFFFFFFFFFFFF0F
:10020000FFFFFFFFFFFFFFFFFFFFFFFFFFFFFFFFFE
:10021000FFFFFFFFFFFFFFFFFFFFFFFFFFFFFFFFEE
:10022000FFFFFFFFFFFFFFFFFFFFFFFFFFFFFFFFDE
:10023000FFFFFFFFFFFFFFFFFFFFFFFFFFFFFFFFCE
:10024000FFFFFFFFFFFFFFFFFFFFFFFFFFFFFFFFBE
:10025000FFFFFFFFFFFFFFFFFFFFFFFFFFFFFFFFAE
:10026000FFFFFFFFFFFFFFFFFFFFFFFFFFFFFFFF9E
:10027000FFFFFFFFFFFFFFFFFFFFFFFFFFFFFFFF8E
:10028000FFFFFFFFFFFFFFFFFFFFFFFFFFFFFFFF7E
:10029000FFFFFFFFFFFFFFFFFFFFFFFFFFFFFFFF6E
:1002A000FFFFFFFFFFFFFFFFFFFFFFFFFFFFFFFF5E
:1002B000FFFFFFFFFFFFFFFFFFFFFFFFFFFFFFFF4E
:1002C000FFFFFFFFFFFFFFFFFFFFFFFFFFFFFFFF3E
:1002D000FFFFFFFFFFFFFFFFFFFFFFFFFFFFFFFF2E
:1002E000FFFFFFFFFFFFFFFFFFFFFFFFFFFFFFFF1E
:1002F000FFFFFFFFFFFFFFFFFFFFFFFFFFFFFFFF0E
:1003000008B5052001F054FC0A2805D1044A1378E9
:100310000133DBB2137008BD00F0E4F8FBE700BF67
:100320001801001008B54FF41651032001F054FCD9
:100330004FF4E131052001F04FFC0023044A194637
:10034000052001F0E3FB0121052001F097FB08BD2A
:100350000103001A08B50021084601F055FE0221EC
:10036000012001F051FE08BD08B502210D2001F069
:1003700025F802210E2001F021F802210F2001F0C2
:100380001DF808BDFFFFFFFFF8B501F089FCFFF77E
:10039000EBFFFFF7C7FFFFF7DDFF5A21012001F058
:1003A00045FE5A26012552E00121052001F066FB99
:1003B00000212B2001F0D8F801254DE00021052077
:1003C00001F05CFB01212B2001F0CEF8254649E02D
:1003D0005A21012001F02AFE2C2001F02EF95A2684
:1003E00045E0B02C58D0A4F118000028B8BF404216
:1003F00002F07EF92BA3D3E9002302F0E3F941ECEC
:10040000100B01F06DFE29A3D3E9002351EC100B72
:1004100002F0D8F902F070FC47B2172C01D97F42E4
:100420007FB2FCB22146032001F014FC3744B42F04
:1004300001D82644F6B23146012001F0F7FD2D2007
:1004400001F0FBF8164A1378013BDBB213700D2064
:1004500001F0BFF80028A7D00E2001F0BAF804463A
:100460000028ABD00F2001F0B4F80028B0D0002D48
:10047000EDD00B4B1B78002BE9D000F05BF800248B
:100480000D28AED004EB840463001844C0B23038A9
:10049000C4B200F04FF8F3E72A2001F0CEF8D1E71C
:1004A000180100109CC420B07268913FF6285C8F40
:1004B000C2A53C40084B1A780132084B83FB02135B
:1004C0009B11C82101FB1323054A1078984214BFE1
:1004D00000200120704700BF1A0100101F85EB515A
:1004E0001901001010B50446FFF7E4FF60B9074991
:1004F0000A78074B9C540132064B83FB02039B1185
:10050000C82000FB13230B7010BD00BF1A010010A0
:10051000500100101F85EB51044B1878044B1B78D9
:10052000984214BF00200120704700BF190100103D
:100530001A01001010B5FFF7EFFF68B907490A78F4
:10054000074B985C0132074B83FB02439B11C82485
:1005500004FB13230B7000E0002010BD19010010F4
:10056000500100101F85EB517047FFFF10B572B6A8
:10057000194B1A4A1A600433194A1A60002305E01D
:10058000184A4FF0FF3142F823100133072BF7D9F7
:1005900062B6154B07E003F10C049A6859681868B5
:1005A000FFF7F3FD2346114A9342F4D306E01C46BD
:1005B000596854F8080BFFF7F7FD23460C4A93429D
:1005C000F5D300F0B7FE02F041FDFFF7CDFFFFF7D6
:1005D000DBFE30BFFDE700BF003105400010DF103B
:1005E000FFF7DF0180E200E01401001A5001001A59
:1005F0007801001A7047704700231C2B12D810B4E2
:10060000094A02EB830112F823404A78488802EB3A
:100610004412064941F8220001331C2BF0D95DF841
:10062000044B7047704700BFA830001A00600840B4
:1006300010B5174AD2F8203123F4704343F4104325
:10064000C2F82031D2F8243123F4704343F410432C
:10065000C2F8243101220F49062000F021FA0024BB
:100660004CB10B4B5A6822F00C025A605A6842F0A7
:1006700003025A6010BD084800EB840101238A7808
:10068000497810F8240000F0E3FC0134E8E700BFEB
:100690000030044000CB280CA430001A08B5FFF746
:1006A000ABFFFFF7C5FF08BD0022052A19D870B4BB
:1006B0000C4911F8125001EB42014C780A4B05F538
:1006C000006653F826100120A040014343F826108D
:1006D00003EB4513002119550132052AE8D970BCF6
:1006E000704770472831001A00400F400023032B49
:1006F00016D830B40B4911F8132001EB43014D78A3
:10070000094C02F5006254F822100120A84021EAA9
:10071000000144F822100133032BEBD930BC7047A1
:10072000704700BF2031001A00400F400023082B03
:1007300016D830B40B4911F8132001EB43014D7862
:10074000094C02F5006254F822100120A84021EA69
:10075000000144F822100133082BEBD930BC70475C
:10076000704700BF3431001A00400F4010B582B00E
:10077000084C6946204600F053F9074A694620466E
:1007800000F06EF900226946204600F082F902B0BE
:1007900010BD00BF00300E40801A060010B50B4C93
:1007A000204600F095F8636823F004036360236833
:1007B00023F0FF0343F0070323600549204600F0C0
:1007C00068F8636843F00203636010BD00500C409A
:1007D000A086010008B5002000F0A6F8044B40F602
:1007E0000802C3F8842C0349002000F0AFF808BDCC
:1007F0000060084040420F0010B5074C204600F052
:10080000E1FC4FF4E131204600F026FD0323E360D4
:100810000123E36510BD00BF00100C4008B5FFF7D1
:10082000EBFF094800F0AEF8FFF780FFFFF79EFFEF
:10083000FFF7B4FFFFF7CEFFFFF736FFFFF756FFD6
:1008400000F0DAF908BD00BF00400F4008B5FFF71F
:10085000D3FF08BD034B984201D083207047A520E9
:10086000704700BF00500C40044B984202D040F249
:10087000022070474FF4F170704700BF00500C40E9
:10088000036823F47F43090289B2194301600261BE
:10089000704770B506460D46FFF7E6FF00F056FCC0
:1008A00002224FF0FF33002100E02146AB420BD97A
:1008B0004C1C02FB04F3B0FBF3F39D42F6D2FF2C79
:1008C000F3D902320021F1E73046FFF7D9FF70BDBE
:1008D00010B50446FFF7BEFF00F01EFC2046FFF7F0
:1008E000C3FF00F019FC636823F00403636023680E
:1008F00023F0FF0343F00703236002492046FFF77C
:10090000C8FF10BDA0860100012909D1C0EBC000BD
:100910008200044B13441A69137DDBB2042BFBD015
:10092000704700BF0000001070B50546064EC400B9
:10093000221A93003344988800F0EEFB641BA30056
:10094000F3586C229A6170BD000000102DE9F0414F
:100950000C460B4EC5002B1A4FEA830806EB080322
:10096000988800F0F3FBB0FBF4F056F8083042082A
:100970001A6156F808301A69801A5861BDE8F0818A
:10098000000000107047FFFF094B98420BD0A3F501
:100990008053984209D0A3F57833984201D084203F
:1009A000704785207047A4207047A320704700BF80
:1009B00000400C4008B5FFF7E7FF00F0ADFB08BDB5
:1009C00042680023436001238360022343608368FD
:1009D000002BFCD142607047034B984201D00320AA
:1009E00070470420704700BF00400E4070B50D46B0
:1009F00014461E46FFF7F0FF00F0A8FB55B104FBBC
:100A000006F404EB40006400B0FBF4F0C0B201381F
:100A1000C0B270BD04EB840304EB4304F1E7FFFFB5
:100A200038B505460C46FFF7D7FF01231A4619468D
:100A300000F054FB0021E960084A226021716171D5
:100A40000B232846FFF7D2FF000240F40013207961
:100A5000400400F460201843286038BD801A060066
:100A600070B505460E46046824F46F2424F47064BF
:100A70000A600B79C3F10B03DBB24979FFF7B6FFCC
:100A800044EA002033795B0403F4602303432B60C2
:100A900070BD08B50A710A68FFF7E2FF08BDFFFFE5
:100AA00070B58AB005460E4614464CF25033099391
:100AB000062818D0002301222946042000F0C8FA95
:100AC0004A4A536C43F0010353648DF8085001A95E
:100AD000304600F035FA464B9E4216D9019B13F082
:100AE000400F03D0FEE700F08DF9E3E713F0800F2D
:100AF00005D023F0800301930025012607E0049B25
:100B0000013304930125002601E000252E469DF8BF
:100B10000820019B43EA0263059A43EA0243039AD1
:100B200043EA0233049A43EA022343F400632F4A60
:100B300053642E4B1B6C13F0010FFAD000230122DB
:100B40000921042000F084FA06B34CF250330993D3
:100B5000099B5A1E0992002BFAD1019B43F0800396
:100B600001939DF8082043EA0263059A43EA024391
:100B7000039A43EA0233049A43EA022343F40063EC
:100B80001A4A5364002C2ED10AB070BD002DF9D042
:100B90004CF250330993099B5A1E0992002BFAD14B
:100BA000049B5A1E04929DF80810019B43EA0163BE
:100BB000059943EA0143039943EA013343EA0223D7
:100BC00043F40063094A5364DCE70A4800EB8401FC
:100BD000CB788A78497810F8240000F039FA01348B
:100BE000112CF2D9D0E70024FAE700BF000005403D
:100BF00080778E064C31001A08B5692000F0A6FAFD
:100C0000014B186008BD00BF18020010F0B40B685B
:100C100013F0800F02D023F040030B60074601253C
:100C20003AE04B6903FB02F3B3FBF5F31CE01C460F
:100C3000B0EB040C27D4674506D98D60771CCF60D4
:100C40000A618C61CB6167460132B2F5807F1DDCA1
:100C50000C6814F0400FE4D0731C02FA03FC4B69DB
:100C600003FB0CF3B3FBF5F3DFF838C06345EBD9B6
:100C7000DFF834C0634509D814F0800FD7D1741C55
:100C800023FA04F4D4E7CCF1000CD4E70136032EA8
:100C900001DC0122D9E70135042D01DC0026F6E74D
:100CA000F0BC7047FF5E4C0900D01213F0B599B04C
:100CB00005460C465C22002101A802F0EBF98023D6
:100CC00000936369059323798DF8043069462846BB
:100CD000FFF79CFF069BAB4227D0EB1A2ED41E4693
:100CE000109B23F0400310936369159323798DF8CB
:100CF000443010A92846FFF789FF169BAB421FD04E
:100D0000EB1A25D41F462B4B9D4223D90E9BED1A7F
:100D100033D4AE423BDCBE4231DC6D460FCD0FC456
:100D200095E80F0084E80F0006E06D460FCD0FC474
:100D300095E80F0084E80F0019B0F0BD5B42CEE7E4
:100D400010AD0FCD0FC495E80F0084E80F00F3E756
:100D50005B42D7E74023089363690D9308A92846AF
:100D6000FFF754FF0E9BAB42D0D108AD0FCD0FC49F
:100D700095E80F0084E80F00DEE76D42C9E710AD8B
:100D80000FCD0FC495E80F0084E80F00D4E7AF4201
:100D900007DB08AD0FCD0FC495E80F0084E80F0006
:100DA000CAE710AD0FCD0FC495E80F0084E80F001F
:100DB000C2E700BF80778E0630B4054600231C20B2
:100DC00000E001331C2818D103EB430251000C4A08
:100DD0000A441479844210D003EB43014A000849C5
:100DE0008A5AAA42EDD803EB43025100044A0A444E
:100DF0005288AA42E5D32046E4E730BC704700BFE2
:100E0000A031001A82B04FF47A7301930D4A9369AE
:100E100023F0020192698A4201D00A4A916123F0CB
:100E20000303094A1168094A914201D943F00403B6
:100E3000044A9361019B5A1E0192002BFAD102B021
:100E4000704700BF000005404831001AFF2C3101F7
:100E50001230054B53F8200010F0010F02D1C0F3FF
:100E600004607047112070470000054000F1120235
:100E7000034B53F82220034B185C00EA92007047A2
:100E8000000005409831001A08B510280AD8DFE89C
:100E900000F0440B0D18210924272A2D09093034AC
:100EA000383C400000203AE01E4838E01E4BD3F8A2
:100EB0002C3103F00703042B01D01C482FE0002045
:100EC0002DE0194BD3F82C3103F00703042B27D066
:100ED000164824E0164B186821E0164B18681EE0EF
:100EE000154B18681BE0144B586818E000F068F8C0
:100EF00015E0002100F09AF811E0012100F096F8C9
:100F00000DE0022100F092F809E0032100F08EF8D4
:100F100005E0042100F08AF801E04FF4004008BD2C
:100F20000648FCE7001BB7000030044040787D0114
:100F30001C31001A4831001A1C01001080F0FA021E
:100F400038B505460C460879FFF79EFF6061194BDE
:100F50002B44194A934221D818B3802323600023DD
:100F6000A360E360B5FBF0F32361144A954203D913
:100F700003FB00F0A84207D021462846FFF796FE63
:100F8000A3688BB1013BA360236983B1E2680AB116
:100F9000013AE260013B2361002038BD4FF0FF3091
:100FA000FBE74FF0FF30F8E74FF0FF30F5E74FF089
:100FB000FF30F2E7103A6BFF1005940BFF5E4C090F
:100FC00030B583B0174D6C6CC4F30360FFF75CFF62
:100FD000154B1B6801932B6C13F0010F20D0C4F349
:100FE0000743C4F30132C4F30121C4F38015013374
:100FF00001320DF1080C614411F8041C14F0800F4B
:1010000008D13DB94900B3FBF1F3B0FBF2F000FBAE
:1010100003F003E0B0FBF2F003FB00F003B030BDDF
:101020000020FBE7000005409431001A38B50C465B
:101030000846FFF70DFF05462046FFF717FF044659
:101040002846FFF721FF0134B0FBF4F038BDFFFF65
:1010500030B400F11604A40004F1804404F5A02487
:1010600064681B2813D811291AD00E4D25400AB1E7
:1010700045F400650BB145F0010545EA0165163000
:10108000800000F1804000F5A020456008E044F0B9
:1010900001041630800000F1804000F5A02044607B
:1010A00030BC7047FEF7FFE01B280CD816308000DC
:1010B00000F1804000F5A020406810F0010F04D13D
:1010C000C0F304607047112070471120704708B5C5
:1010D000FFF7EAFFFFF7D8FE08BDFFFF71B9012156
:1010E0000AB141F00401022B0AD0B0F5A17F0AD366
:1010F000A0F59170064B43F8301070470321EFE7DD
:1011000041F02001F1E72030024B43F830107047E6
:101110000020054000100540B0F5A17F09D3094A21
:10112000A0F5917052F8303043F0010342F83030AE
:101130007047054A203052F8303043F0010342F83E
:1011400030307047002005400010054010B5B0F564
:10115000A17F09D3A0F591730D4A52F8334014F0E2
:10116000010F07D1002010BD00F12003094A52F8F9
:101170003340F4E7FFF720FEFFF7A9FF14F0E00F7C
:1011800003D10123B0FBF3F0EDE70223FAE700BF40
:101190000020054000100540094B984209D003F596
:1011A0008053984207D0A3F58023984205D00020B1
:1011B000704702207047032070470120704700BF2E
:1011C00000100C4030B583B00446FFF7E5FF012363
:1011D0001A4619460E4D35F81000FFF77FFF07231A
:1011E000A3600023E3656360E3602362E3646365F7
:1011F0002365084B9C4206D00323E3601023A362BF
:10120000019B03B030BD00232361A3690193F3E781
:101210001432001A0020084038B505460C46FFF786
:10122000BBFF0C4B33F81000FFF790FF2301B0FB1E
:10123000F3F3D9B2EA6842F08002EA602960C3F3AE
:1012400007226A60EA6822F08002EA60B0FBF3F0ED
:10125000000938BD0C32001A2DE9F04F83B001901F
:101260008846FFF799FF324B33F81000FFF76EFF07
:1012700006464FF0FF3701244FF0000BA246D94637
:101280002AE042424B1C17E00AB31746AB46A2467F
:1012900099460135AC421ED933093007A4FB000141
:1012A00004FB0311621908FB02F2002301F04CFD5C
:1012B00002460B460028E4DB9742EAD3002BE8D035
:1012C000190CE6D1022BDFD8002DDDD0E1E717465F
:1012D000AB46A246994601341FB10F2C01D8002518
:1012E000D8E7B9F1000F1ED0019A1146D36843F038
:1012F0008003D3605FFA89F31360C9F30723536057
:10130000D36823F08003D3604FEA0A13DBB20BF0FB
:101310000F0213438B6233090AFB03F3DA4409FB20
:101320000AF9B3FBF9F9484603B0BDE8F08F00BFF6
:101330000C32001A08B50B4A0B4B9A6003F50C737C
:101340001B6903F47F63202B04D0FFF7A7F9FFF795
:1013500065FA08BD044AD2F8883043F47003C2F835
:101360008830F2E70000001A00ED00E0044B18603E
:10137000044A136843F0010313600120704700BF63
:1013800038000010001000E030B40B4D00EB80007E
:101390002C182856087094F90110117094F9022045
:1013A0001A7094F90320029B1A7094F90420039B8D
:1013B0001A7030BC704700BF1C32001A10F1020FC7
:1013C00000F0C780B0F1FF3F00F0C58070B584B079
:1013D0000C4600238DF80F308DF80E308DF80D304F
:1013E0008DF80C308DF80B300DF10B03019303AB2E
:1013F00000930DF10D030DF10E020DF10F01FFF73A
:10140000C3FF052C00F2A980DFE804F0098127451D
:1014100063035348FFF7B6FA012004B070BD9DF88E
:101420000F109DF80E309DF80D2042F0D00203EB16
:1014300041134C4941F823209DF80C309DF90B20B5
:10144000012000FA02F1464C03F5006354F8232012
:1014500022EA010244F82320DFE79DF80F109DF8EF
:101460000E309DF80D2042F0C00203EB41133D49C0
:1014700041F823209DF80C309DF90B20012000FA43
:1014800002F1374C03F5006354F8232022EA0102ED
:1014900044F82320C1E79DF80F109DF80E309DF809
:1014A0000D2042F0D80203EB41132E4941F82320CE
:1014B0009DF80C309DF90B20012000FA02F1284C18
:1014C00003F5006354F8232022EA010244F82320A4
:1014D000A3E79DF80F109DF80E309DF80D2042F007
:1014E000C80203EB41131F4941F823209DF80C303B
:1014F0009DF90B20012000FA02F1194C03F500635D
:1015000054F8232022EA010244F8232085E79DF8BD
:101510000F109DF80E309DF80D2042F0D00203EB25
:101520004113104941F823209DF80C409DF90B20F0
:10153000012000FA02F10A4B04F5006553F825601A
:10154000314343F82510D2B203EB441300219954E0
:1015500063E7002070470020704700205DE700BF70
:1015600000400F400060084010F1020F2DD0B0F194
:10157000FF3F2CD010B584B00C4600238DF80F30FF
:101580008DF80E308DF80D308DF80C308DF80B3055
:101590000DF10B03019303AB00930DF10D030DF15E
:1015A0000E020DF10F01FFF7EFFE9DF80C309DF8D4
:1015B0000B20211C18BF01215B0103F1402303F51F
:1015C00070239954012004B010BD00207047002002
:1015D000704710F1020F2CD0B0F1FF3F2BD000B5B7
:1015E00085B000238DF80F308DF80E308DF80D305A
:1015F0008DF80C308DF80B300DF10B03019303AB1C
:1016000000930DF10D030DF10E020DF10F01FFF727
:10161000BBFE9DF90C309DF80B205B0103F14023CC
:1016200003F57023985C003018BF012005B05DF809
:1016300004FB012070470020704710B50446FFF7F7
:10164000C8FFB0FA80F149092046FFF78DFF10BDB1
:10165000FEE770472DE9F041002977D0054617468F
:101660000E4604463E49430003449A0001EB02083B
:101670008858FFF79FF998F8043003F01F015B09C1
:1016800001228A404033374941F8232004EB4403C8
:101690009A00334B13441B795A095432314951F89B
:1016A000221003F01F03012202FA03F31942EDD0C6
:1016B0002B4905FA02F32B449A0001EB02088C58DF
:1016C0002046FFF77DF92B01274AD750636943F085
:1016D00001036361A661636943F0020363616368A8
:1016E00043F001036360D8F8082053B2002B30DBCD
:1016F00003F1604303F56143C02283F8002305EB47
:1017000045039A00164B13449A6853B2002B08DB2A
:1017100002F01F025B09012101FA02F2134941F8AC
:10172000232005EB4505AA000D4B13449A6853B2DC
:10173000002B09DB02F01F025B09012101FA02F212
:1017400060330A4941F82320BDE8F0810020FFF70B
:101750007FFF02F00F02064B1344C0221A76CEE739
:101760000433001A003005403C00001000E100E0A6
:10177000FCEC00E0CC2303FB00F0704730B401EB3D
:1017800080050A4C44F8253000EB400083000848EF
:10179000C35849B2586901EB41050124AC402043CC
:1017A0005861063143F8212030BC70473C000010DE
:1017B0000433001A10B401EB80020C4B0C4C43F8BC
:1017C000224000EB400083000A4AD25849B201236C
:1017D00003FA01F01060506901EB410103FA01F1D5
:1017E00020EA010151615DF8044B70473C00001094
:1017F0005316001A0433001A00EB4000830003481C
:10180000C35849B2063143F8212070470433001A07
:1018100038B5002401E00134E4B2032C12D865B2DB
:10182000094B1A6804F00F0101238B401A42F2D0D1
:10183000064B53F82430002098470123AB40024A5E
:101840001360E8E738BD00BF004008403C000010CE
:1018500038B5002401E00134E4B2032C13D865B29A
:10186000094B1A6804F00F0101238B401A42F2D091
:10187000231D064A52F82330002098470123AB402D
:10188000014A1360E7E738BD005008403C000010F3
:1018900038B5002401E00134E4B2032C14D865B259
:1018A0000A4B1A6804F00F0101238B401A42F2D050
:1018B00004F10803064A52F8233000209847012318
:1018C000AB40024A1360E6E738BD00BF00300C4071
:1018D0003C00001038B5002401E00134E4B2032CD0
:1018E00014D865B20A4B1A6804F00F0101238B402B
:1018F0001A42F2D004F10C03064A52F823300020B9
:1019000098470123AB40024A1360E6E738BD00BFA9
:1019100000400C403C00001018B1044B07221A6034
:101920007047024B00221A60704700BF10E000E0D1
:1019300038B550EA01042AD010F1FF3241F1FF33EB
:10194000002B08BF322A27D2144BC3E90001144BE5
:101950001B68A3FB004503FB01554FF47A7200237B
:101960002046294601F0F0F90138B0F1807F09D214
:101970000C4B58600C4AE02182F8231000229A6038
:1019800007221A600120FFF7C7FF012038BD0020A1
:10199000FFF7C2FF0020F9E70020F7E78000001002
:1019A0001802001010E000E000ED00E008B5074A62
:1019B00013685168013341F1000113605160044B19
:1019C0001B6813B1034A1068984708BD280100102E
:1019D000300100102401001070B5044600EB4002F5
:1019E00093001F4AD6587569EDB215F0010F09D062
:1019F00020B91C4B1B680BB100209847032C13D057
:101A0000052C18D015F0200F0DD0736813F0020FBD
:101A100009D024B9144B1B680BB100209847032C44
:101A200010D0052C15D070BD104B1B68002BE7D0D3
:101A300000209847E4E70E4B1B68002BE2D0002003
:101A40009847DFE70B4B1B68002BEAD00020984734
:101A5000E7E7094B1B68002BE5D000209847E2E739
:101A60003433001A34010010400100103801001016
:101A70003C010010440100104801001041B300EB8C
:101A800040039A001E4B134493F90A30002B18DBD5
:101A900003F1604303F56143A02283F8002300EBC8
:101AA00040008200164B134493F90A30002B25DBCB
:101AB00003F01F015B0901228A40124941F82320EB
:101AC000704703F00F03104A1A44A0231376E6E789
:101AD00000EB400082000A4B134493F90A30002BBC
:101AE0000CDB03F01F015B0901228A40203305490A
:101AF00041F82320BFF34F8FBFF36F8F704700BFB4
:101B00003433001A00E100E0FCEC00E011B10129DF
:101B10001DD0704782B101280FD9C31EDBB2012B43
:101B20000ED905280FD0052300EB40008200134991
:101B30008A5851680B4353607047114B1A60ECE7A9
:101B4000104B1A60EDE7104B1A600523ECE7002AF2
:101B5000F2D0012807D9C31EDBB2012B06D9052814
:101B600007D00223E0E7094B1A60F4E7084B1A603C
:101B7000F5E7084B1A600223D6E700BF3433001A9A
:101B800034010010380100103C0100104001001029
:101B9000440100104801001000EB40008300034A9C
:101BA000D358586900F02000704700BF3433001A42
:101BB00000EB40008300024AD3581868C0B2704757
:101BC0003433001A00EB40008300024AD3581960F6
:101BD000704700BF3433001A2DE9F8438046894628
:101BE000194C45002A189300E618E7583846FFF7C5
:101BF000E9FA49463846FFF70FFB0723BB603B680D
:101C00000123FB6530797379B27942F018020F49EC
:101C100003EB401341F82320F079337A727A42F0D3
:101C2000D00203EB401341F82320B8F1010F01D09B
:101C3000BDE8F883064AD36C43F03003D3641A221C
:101C4000C1F80823F4E700BF3433001A00600840ED
:101C50000010084038B504460D462046FFF79CFFAB
:101C60000028FAD029462046FFF7ACFF38BD08B55A
:101C70000320FFF7B1FE08BD08B50520FFF7ACFE55
:101C800008BDFFFF08B5044B1B681B68DB68034AEF
:101C90001068984708BD00BF1C0200104C010010DE
:101CA00008B5FEF7A9FF1A4B1868FFF75FFB012084
:101CB0000021FFF73DFE05210020FFF77FFB0021FB
:101CC0002420FFF77BFB00212520FFF777FB002175
:101CD0002620FFF773FB00212720FFF76FFB012170
:101CE0002820FFF76BFB01212920FFF767FB01216B
:101CF0002A20FFF763FB01212B20FFF75FFB012167
:101D00002C20FFF75BFB01212D20FFF757FB08BDBF
:101D10001802001008B5044B1B780021034AD05666
:101D2000FFF722FC08BD00BF880000107C33001ABA
:101D300008B5044B1B7A0021034AD056FFF714FC68
:101D400008BD00BF880000107C33001A08B5044BA2
:101D50001B7C0021034AD056FFF706FC08BD00BFDC
:101D6000880000107C33001A08B5044B1B7E00214C
:101D7000034AD056FFF7F8FB08BD00BF88000010EB
:101D80007C33001A08B5044B93F820300021034A35
:101D9000D056FFF7E9FB08BD880000107C33001A1D
:101DA00008B5044B93F828300021034AD056FFF7BA
:101DB000DBFB08BD880000107C33001A08B5044B1B
:101DC00093F830300021034AD056FFF7CDFB08BD11
:101DD000880000107C33001A08B5044B93F83830A3
:101DE0000021034AD056FFF7BFFB08BD8800001052
:101DF0007C33001A08B5044B93F840300021034AA5
:101E0000D056FFF7B1FB08BD880000107C33001AE4
:101E10004FF4FA6303FB00F0034B83FB00231844E9
:101E2000C01100F5FA707047B7600BB670B50024AA
:101E300015E001210E4AD056FFF796FB0D4B03EB40
:101E4000C4039D78DE785878FFF7E2FFFFF792FC35
:101E5000024631462846FFF7CFFC0134E4B2022C9B
:101E600005D8044B13F83430FF2BF6D0E1E770BDF2
:101E70007C33001A8800001070B5032415E001219E
:101E80000E4AD056FFF770FB0D4B03EBC4039D7851
:101E9000DE785878FFF7BCFFFFF76CFC024631464E
:101EA0002846FFF7A9FC0134E4B2052C05D8044B01
:101EB00013F83430FF2BF6D0E1E770BD7C33001A05
:101EC0008800001070B5062415E001210E4AD05696
:101ED000FFF74AFB0D4B03EBC4039D78DE7858787F
:101EE000FFF796FFFFF746FC024631462846FFF70C
:101EF00083FC0134E4B2082C05D8044B13F83430C9
:101F0000FF2BF6D0E1E770BD7C33001A880000108B
:101F100008B544F62060FFF72DFC0C4A014601206D
:101F2000FFF798FB44F62060FFF724FC084A0146BF
:101F30000220FFF78FFB44F62060FFF71BFC054AE9
:101F400001460320FFF786FB08BD00BF2D1E001AC7
:101F5000791E001AC51E001A0023082B07D8074A4D
:101F600012F83320824202D00133DBB2F5E7082BAE
:101F700002D8581CC0B2704700207047880000107B
:101F800070B504460121124B1856FFF717FA204688
:101F9000FFF7E2FFD0B9FF20FFF7DEFF08B900200E
:101FA00015E0421E0B4B03F8324003EBC204A57848
:101FB000E6786078FFF72CFFFFF7DCFB63680246EA
:101FC00031462846FFF7DAFB012000E0002070BD13
:101FD0007C33001A8800001008B5FFF7BDFF08B970
:101FE000002008BD431E074AFF2102F8331002EB10
:101FF000C30300225A70D9789878FFF7DBFB0120E1
:10200000EFE700BF8800001008B5022908D00329B7
:1020100009D009B1002008BDFFF77AFF0120FAE7D7
:10202000FFF7AEFFF7E7FFF7D7FFF4E710B50C4671
:10203000FFF792FF40B1B42C08D8431E044A02EBCC
:10204000C3035C70012000E0002010BD0020FCE70D
:1020500088000010012303FA00F0014B586270471A
:1020600000700840F8B5124B1A5C124BD969012375
:1020700083400B420CD010498C6802EB4202D10025
:102080000E4A0A4454600B4AD361FFF7E3FFF8BDE0
:1020900009498E68094D51008F18FC0027462C44D1
:1020A000A6606468361B3D44EE60024A1362ECE7AA
:1020B0008833001A0070084000400840D00000102B
:1020C00008B50020FFF7CEFF08BD08B50120FFF7D7
:1020D000C9FF08BD08B50220FFF7C4FF08BDFFFF18
:1020E0002DE9F84F55EC104BC94B25F000469E42A8
:1020F000AA461ADDC74B9E420DDC0AD0BAF1000F8A
:1021000040F3CB80A6A1D1E9000141EC100BBDE862
:10211000F88F002CF2D022462B462046294600F0AC
:102120009BF941EC100BBDE8F88FBB4B9E4200F3CE
:10213000C380A3F1DE739E4240F39D804FF0FF3BCE
:1021400022462B462046294600F03CFB02460B4621
:102150008046894600F036FB93A3D3E90023064668
:102160000F4600F02FFB92A3D3E9002300F074F98F
:1021700032463B4600F026FB8FA3D3E9002300F054
:102180006BF932463B4600F01DFB8DA3D3E90023DB
:1021900000F062F932463B4600F014FB8AA3D3E913
:1021A000002300F059F932463B4600F00BFB88A3B0
:1021B000D3E9002300F050F942464B4600F002FB01
:1021C00085A3D3E90023804689463046394600F08E
:1021D000F9FA83A3D3E9002300F03CF932463B46E9
:1021E00000F0F0FA80A3D3E9002300F033F932467F
:1021F0003B4600F0E7FA7EA3D3E9002300F02AF97A
:1022000032463B4600F0DEFA7BA3D3E9002300F020
:1022100021F932463B4600F0D5FA02460B464046CD
:10222000494600F019F922462B4600F0CBFABBF1E3
:10223000FF3F02460B4637D0784B794E4FEACB0B27
:102240005B44D3E9002300F005F922462B4600F059
:1022500001F9B34402460B46DBE9000100F0FAF84D
:10226000BAF1000FBFF65DAF01F10043194641EC32
:10227000100BBDE8F88F62A3D3E9002310EE100A1B
:10228000294600F0E9F80022664B00F02BFD0028FB
:102290003FF454AF2046294643E75BA1D1E9000152
:1022A00041EC100BBDE8F88F2046294600F0D2F82B
:1022B00041EC100BBDE8F88F00F0BEF85A4B9E427F
:1022C00055EC104B23DCA3F550239E424CDC10EE62
:1022D000102A10EE100A2B46294600F0BDF8002205
:1022E000504B00F0B7F8002206460F464FF08043EF
:1022F0002046294600F0B0F802460B4630463946E3
:1023000000F08AFB4FF0000B04460D4618E7474BE0
:102310009E421DDC10EE100A0022454B294600F0BB
:1023200099F8002206460F46414B2046294600F008
:1023300049FA00223B4B00F08FF802460B4630462C
:10234000394600F069FB4FF0020B04460D46F7E6F4
:102350002B4610EE102A0020364900F05DFB4FF0AE
:10236000030B04460D46EBE610EE100A00222D4B3F
:10237000294600F06FF8002206460F46294B2046FA
:10238000294600F069F802460B463046394600F00F
:1023900043FB4FF0010B04460D46D1E6AFF300803E
:1023A000182D4454FB21F93F11DA22E33AAD903F56
:1023B000EB0D76244B7BA93F513DD0A0660DB13F7C
:1023C0006E204CC5CD45B73FFF8300922449C23FE4
:1023D0000D5555555555D53F2F6C6A2C44B4A2BFA9
:1023E0009AFDDE522DDEAD3F6D9A74AFF2B0B33F71
:1023F000711623FEC671BC3FC4EB98999999C93FE9
:102400009C7500883CE4377E182D4454FB21F9BFAD
:10241000FFFF0F440000F07FFFFFDB3FB033001AE7
:102420009033001A0000F03FFFFFF23FFF7F0340B0
:102430000000F83F0000F0BF51EC100B10EE102A26
:1024400021F0004343EC102B704700BF81F00041A6
:1024500002E000BF83F0004330B54FEA41044FEA89
:10246000430594EA050F08BF90EA020F1FBF54EA24
:10247000000C55EA020C7FEA645C7FEA655C00F0C0
:10248000E2804FEA5454D4EB5555B8BF6D420CDD91
:102490002C4480EA020281EA030382EA000083EA14
:1024A000010180EA020281EA0303362D88BF30BDB4
:1024B00011F0004F4FEA01314FF4801C4CEA11310A
:1024C00002D0404261EB410113F0004F4FEA033369
:1024D0004CEA133302D0524263EB430394EA050FF4
:1024E00000F0A780A4F10104D5F1200E0DDB02FA63
:1024F0000EFC22FA05F2801841F1000103FA0EF2F7
:10250000801843FA05F359410EE0A5F120050EF1BC
:10251000200E012A03FA0EFC28BF4CF0020C43FAED
:1025200005F3C01851EBE37101F0004507D54FF0FA
:10253000000EDCF1000C7EEB00006EEB0101B1F54A
:10254000801F1BD3B1F5001F0CD349085FEA300090
:102550004FEA3C0C04F101044FEA445212F5800F9B
:1025600080F09A80BCF1004F08BF5FEA500C50F138
:10257000000041EB045141EA050130BD5FEA4C0C1B
:10258000404141EB010111F4801FA4F10104E9D1A4
:1025900091F0000F04BF01460020B1FA81F308BF9B
:1025A0002033A3F10B03B3F120020CDA0C3208DD67
:1025B00002F1140CC2F10C0201FA0CF021FA02F142
:1025C0000CE002F11402D8BFC2F1200C01FA02F1B2
:1025D00020FA0CFCDCBF41EA0C019040E41AA2BFD7
:1025E00001EB0451294330BD6FEA04041F3C1CDA9F
:1025F0000C340EDC04F11404C4F1200220FA04F0BF
:1026000001FA02F340EA030021FA04F345EA030168
:1026100030BDC4F10C04C4F1200220FA02F001FA2A
:1026200004F340EA0300294630BD21FA04F02946AC
:1026300030BD94F0000F83F4801306BF81F4801145
:102640000134013D4EE77FEA645C18BF7FEA655CB8
:1026500029D094EA050F08BF90EA020F05D054EA8A
:10266000000C04BF1946104630BD91EA030F1EBF8F
:102670000021002030BD5FEA545C05D14000494193
:1026800028BF41F0004130BD14F580043CBF01F586
:10269000801130BD01F0004545F0FE4141F470016C
:1026A0004FF0000030BD7FEA645C1ABF1946104647
:1026B0007FEA655C1CBF0B46024650EA013406BF48
:1026C00052EA033591EA030F41F4002130BD00BF07
:1026D00090F0000F04BF0021704730B54FF48064C4
:1026E00004F132044FF000054FF0000150E700BF45
:1026F00090F0000F04BF0021704730B54FF48064A4
:1027000004F1320410F0004548BF40424FF0000190
:102710003EE700BF42004FEAE2014FEA31014FEAD3
:1027200002701FBF12F07F4393F07F4F81F0605122
:10273000704732F07F4208BF704793F07F4F04BF6D
:1027400041F40021704730B54FF4607401F000454A
:1027500021F000411CE700BF50EA010208BF7047AA
:1027600030B54FF000050AE050EA010208BF70479B
:1027700030B511F0004502D5404261EB41014FF404
:10278000806404F132045FEA915C3FF4D8AE4FF00C
:1027900003025FEADC0C18BF03325FEADC0C18BFEF
:1027A000033202EBDC02C2F1200300FA03FC20FA40
:1027B00002F001FA03FE40EA0E0021FA02F114448D
:1027C000BDE600BF70B54FF0FF0C4CF4E06C1CEAA6
:1027D00011541DBF1CEA135594EA0C0F95EA0C0F17
:1027E00000F0DEF82C4481EA030621EA4C5123EA8A
:1027F0004C5350EA013518BF52EA033541F48011B9
:1028000043F4801338D0A0FB02CE4FF00005E1FB6B
:1028100002E506F00042E0FB03E54FF00006E1FBB5
:1028200003569CF0000F18BF4EF0010EA4F1FF04F8
:10283000B6F5007F64F5407404D25FEA4E0E6D4138
:1028400046EB060642EAC62141EA55514FEAC52049
:1028500040EA5E504FEACE2EB4F1FD0C88BFBCF5C5
:10286000E06F1ED8BEF1004F08BF5FEA500E50F176
:10287000000041EB045170BD06F0004646EA01013C
:1028800040EA020081EA0301B4EB5C04C2BFD4EB6E
:102890000C0541EA045170BD41F480114FF0000E67
:1028A000013C00F3AB8014F1360FDEBF002001F0D5
:1028B000004170BDC4F10004203C35DA0C341BDC4F
:1028C00004F11404C4F1200500FA05F320FA04F021
:1028D00001FA05F240EA020001F0004221F0004155
:1028E00010EBD37021FA04F642EB06015EEA430EC8
:1028F00008BF20EAD37070BDC4F10C04C4F12005F8
:1029000000FA04F320FA05F001FA04F240EA0200AA
:1029100001F0004110EBD37041F100015EEA430E7B
:1029200008BF20EAD37070BDC4F1200500FA05F29B
:102930004EEA020E20FA04F301FA05F243EA02031A
:1029400021FA04F001F0004121FA04F220EA020029
:1029500000EBD3705EEA430E08BF20EAD37070BD6F
:1029600094F0000F0FD101F00046400041EB01014F
:1029700011F4801F08BF013CF7D041EA060195F031
:10298000000F18BF704703F00046520043EB0303EB
:1029900013F4801F08BF013DF7D043EA06037047D8
:1029A00094EA0C0F0CEA135518BF95EA0C0F0CD0E3
:1029B00050EA410618BF52EA4306D1D181EA030129
:1029C00001F000414FF0000070BD50EA410606BF23
:1029D0001046194652EA430619D094EA0C0F02D168
:1029E00050EA013613D195EA0C0F05D152EA0336AD
:1029F0001CBF104619460AD181EA030101F00041CB
:102A000041F0FE4141F470014FF0000070BD41F013
:102A1000FE4141F4780170BD70B54FF0FF0C4CF4ED
:102A2000E06C1CEA11541DBF1CEA135594EA0C0F0C
:102A300095EA0C0F00F0A7F8A4EB050481EA030E59
:102A400052EA03354FEA013100F088804FEA033340
:102A50004FF0805545EA131343EA12634FEA02220E
:102A600045EA111545EA10654FEA00260EF00041CF
:102A70009D4208BF964244F1FD0404F5407402D221
:102A80005B084FEA3202B61A65EB03055B084FEAB2
:102A900032024FF480104FF4002CB6EB020E75EBAF
:102AA000030E22BFB61A754640EA0C005B084FEAD7
:102AB0003202B6EB020E75EB030E22BFB61A754654
:102AC00040EA5C005B084FEA3202B6EB020E75EB9F
:102AD000030E22BFB61A754640EA9C005B084FEA17
:102AE0003202B6EB020E75EB030E22BFB61A754624
:102AF00040EADC0055EA060E18D04FEA051545EA13
:102B000016754FEA06164FEAC30343EA52734FEABB
:102B1000C2025FEA1C1CC0D111F4801F0BD141EA34
:102B200000014FF000004FF0004CB6E711F4801F99
:102B300004BF01430020B4F1FD0C88BFBCF5E06F79
:102B40003FF6AFAEB5EB030C04BFB6EB020C5FEA89
:102B5000500C50F1000041EB045170BD0EF0004EDE
:102B60004EEA113114EB5C04C2BFD4EB0C0541EA10
:102B7000045170BD41F480114FF0000E013C90E60D
:102B800045EA060E8DE60CEA135594EA0C0F08BFD1
:102B900095EA0C0F3FF43BAF94EA0C0F0AD150EAD0
:102BA00001347FF434AF95EA0C0F7FF425AF104663
:102BB00019462CE795EA0C0F06D152EA03353FF48B
:102BC000FDAE1046194622E750EA410618BF52EA08
:102BD00043067FF4C5AE50EA41047FF40DAF52EADC
:102BE00043057FF4EBAE12E74FF0FF3C06E000BF79
:102BF0004FF0010C02E000BF4FF0010C4DF804CD86
:102C00004FEA410C7FEA6C5C4FEA430C18BF7FEA45
:102C10006C5C1BD001B050EA410C0CBF52EA430C73
:102C200091EA030F02BF90EA020F0020704710F1F3
:102C3000000F91EA030F58BF994208BF90422CBF82
:102C4000D8176FEAE37040F0010070474FEA410C7B
:102C50007FEA6C5C02D150EA013C07D14FEA430C99
:102C60007FEA6C5CD6D152EA033CD3D05DF8040B0A
:102C7000704700BF8446104662468C46194663463C
:102C800000E000BF01B5FFF7B7FF002848BF10F113
:102C9000000F01BD4DF808EDFFF7F4FF0CBF012058
:102CA00000205DF808FB00BF4DF808EDFFF7EAFFD4
:102CB00034BF012000205DF808FB00BF4DF808ED8F
:102CC000FFF7E0FF94BF012000205DF808FB00BF84
:102CD0004DF808EDFFF7CEFF94BF012000205DF80E
:102CE00008FB00BF4DF808EDFFF7C4FF34BF01201B
:102CF00000205DF808FB00BF4FEA410212F5001208
:102D000015D211D56FF47873B3EB625212D94FEA32
:102D1000C12343F0004343EA505311F0004F23FA1C
:102D200002F018BF404270474FF00000704750EA71
:102D3000013005D111F0004008BF6FF0004070472E
:102D40004FF00000704700BF53B94AB9002908BFCF
:102D500000281CBF4FF0FF314FF0FF3000F074B976
:102D6000ADF1080C6DE904CE00F006F8DDF804E0E2
:102D7000DDE9022304B070472DE9F047089E0446C0
:102D80008846002B40F085808A42154648D9B2FA21
:102D900082F24AB1C2F1200701FA02F320FA07F7E2
:102DA000954047EA030894404FEA154E230CB8FBC0
:102DB000FEF71FFA85FC0EFB178843EA084307FB62
:102DC0000CF1994209D9EB1807F1FF3080F0E3804C
:102DD000994240F2E080023F2B445B1AA4B2B3FB5D
:102DE000FEF00EFB103344EA034400FB0CFCA44548
:102DF00009D92C1900F1FF3380F0CB80A44540F2B3
:102E0000C88002382C4440EA0740A4EB0C04002799
:102E10001EB1D4400023C6E900433946BDE8F0871F
:102E2000002A53D0B2FA82F2002A40F0B680491B41
:102E30004FEA154E1FFA85F80127B1FBFEFC230C63
:102E40000EFB1C1143EA014308FB0CF1994207D920
:102E5000EB180CF1FF3002D2994200F2EC8084466C
:102E6000591AA3B2B1FBFEF00EFB101443EA04445E
:102E700008FB00F8A04507D92C1900F1FF3302D256
:102E8000A04500F2DC801846A4EB080440EA0C40A0
:102E9000BEE78B4208D9002E78D00027C6E9000192
:102EA00038463946BDE8F087B3FA83F77FB98B42DD
:102EB00002D3824200F2BD80841A61EB0303012039
:102EC0009846002EA9D0C6E90048A6E7FFDEC7F164
:102ED0002005BB4022FA05FC4CEA030C01FA07F47A
:102EE00020FA05F821FA05F34FEA1C4E48EA0404DB
:102EF000B3FBFEF9210C0EFB19331FFA8CF841EAE3
:102F0000034309FB08FA9A4502FA07F200FA07F1AF
:102F10000BD91CEB030309F1FF3080F088809A4540
:102F200040F28580A9F102096344A3EB0A03A4B22D
:102F3000B3FBFEF00EFB103344EA034400FB08F839
:102F4000A04508D91CEB040400F1FF336BD2A04567
:102F500069D90238644440EA0940A4EB0804A0FBA4
:102F600002894C45C6464B4654D351D0002E69D0F9
:102F7000B1EB0E0264EB030404FA05F522FA07F341
:102F8000FC401D43C6E90054002746E7374630465B
:102F900043E7184637E707461FE7C2F1200320FA48
:102FA00003F7954001FA02F021FA03F34FEA154EB8
:102FB0003843010CB3FBFEF71FFA85F80EFB1733FD
:102FC00041EA034107FB08F38B4204FA02F407D9F4
:102FD000691807F1FF3C28D28B4226D9023F2944C9
:102FE000CB1A81B2B3FBFEF00EFB103341EA034172
:102FF00000FB08F38B4207D9691800F1FF3C10D29F
:103000008B420ED902382944C91A40EA074714E70F
:103010004145ABD2B8EB020E69EB0C020138134606
:10302000A4E76046F0E7184695E76746D8E781468B
:103030007BE7384645E7ACF1020C2B4410E7023839
:103040002C4421E73746E8E6704700BF70B50D4DC8
:103050000D4C641BA4100026A64209D10B4D0C4C4C
:10306000FDF7C9FA641BA4100026A64205D170BD65
:1030700055F8043B98470136EEE755F8043B98476E
:103080000136F2E7D033001AD033001AD033001AD9
:10309000D433001A02440346934200D1704703F828
:1030A000011BF9E7010F0101020044000201440085
:1030B00002024400020A4000020B4000020C4000E1
:1030C00001005000010150000102500001065000B3
:1030D0000601500006045000060550000607540083
:1030E0000608540006095000060A5000060B50005E
:1030F000060C50000F04F0000103D5000104D500B8
:103100000701160007025600020352000204520093
:10311000090552000906570006025700000000008A
:103120000004000800090109050005010502000E60
:10313000010B010C030003030304050F0510030535
:10314000030603070208FFFF001BB7000001010090
:10315000090901000A090100010701010209010032
:10316000060901000C0901010D0901000E09010009
:103170000F090100100901001109010012090100E5
:103180001309010014110100191101001A110100A5
:103190001B11010001020408030F0F0FFF000000C4
:1031A000000005000A002000240009004000400043
:1031B00005006000A6000400C000C3000200E0009B
:1031C000E0000100000100010300200120010600D1
:1031D000400140010C0042014201190062016201FC
:1031E0001300820182011200A201A2011100C2019A
:1031F000C2011000E201E2010F00020202020E0011
:10320000220222020D00230223021C00C201A2019D
:103210008201620181008200A100A200040100027B
:1032200001070500030D0105000108040200020268
:1032300004030002030400000200070400030C035F
:10324000020405090301040508020304050302043E
:10325000040504060C000208060B0003070609001B
:103260000305060704050F06040003030404000217
:103270000404050002050406000206040804050C07
:10328000040A04050E010300000A011400000F01E6
:103290001200000D011100000C01100000030707CF
:1032A00000030F00010000010000000000060A00FA
:1032B00003060608040510060500030406010003C2
:1032C00000040904050D010400000B010F000002B9
:1032D00001000000040101000008010200000901D2
:1032E00006000109020004050002010405010202B2
:1032F000040502020A00000E020B00010B020C0082
:10330000010CFFFF00400840200000000C000000FE
:1033100000500840210000000D00000000300C406B
:10332000220000000E00000000400C4023000000BE
:103330000F000000001008400604020605021800F5
:10334000001008400905070906071800002008407A
:10335000000000000000190000100C4007010607E3
:1033600002061A0000100C40010F010110011A00A2
:1033700000200C400203020204021B0000020304AE
:103380000B1011121FFFFFFF000102FFFFFFFFFFE5
:103390004FBB610567ACDD3F182D4454FB21E93F6D
:1033A0009BF681D20B73EF3F182D4454FB21F93F5C
:1033B000E2652F227F2B7A3C075C143326A6813CE2
:1033C000BDCBF07A8807703C075C143326A6913C8D
:0433D0004D08001A8A
:0833D400A4F9FF7F01000000D5
:1033DC0000100A40220000000909001A0000000039
:1033EC0000000000000000000000000000000E4083
:1033FC00010000000909001A000000000000000094
:10340C00000000000000000000CB280C5316001A2E
:10341C005116001A5116001A5116001A5316001A9A
:10342C005116001A5116001A5116001A5316001A8A
:10343C005116001A5116001A5116001A5316001A7A
:10344C005116001A5116001A5116001AFFFFFFFFF1
:10345C000100000000000000FF000101151D001A12
:10346C00FF000102311D001AFF0001034D1D001A5F
:10347C00FF000201691D001AFF000202851D001ADF
:10348C00FF000203A11D001AFF000301BD1D001A5D
:10349C00FF000302D91D001AFF000303F51D001ADB
:1034AC000000000000000000000000000000000010
:1034BC001F010003040000000100000000000000D8
:1034CC0000000000000000001E01010510000000BB
:1034DC0002000000000000000000000000000000DE
:0834EC001D01020306000000AF
:040000051A00056D6B
:00000001FF
